{
  "contractName": "CrudContract",
  "abi": [
    {
      "constant": true,
      "inputs": [
        {
          "name": "",
          "type": "uint256"
        }
      ],
      "name": "users",
      "outputs": [
        {
          "name": "uid",
          "type": "uint256"
        },
        {
          "name": "name",
          "type": "string"
        }
      ],
      "payable": false,
      "stateMutability": "view",
      "type": "function",
      "signature": "0x365b98b2"
    },
    {
      "constant": false,
      "inputs": [
        {
          "name": "_name",
          "type": "string"
        }
      ],
      "name": "create",
      "outputs": [],
      "payable": false,
      "stateMutability": "nonpayable",
      "type": "function",
      "signature": "0xb6a46b3b"
    },
    {
      "constant": true,
      "inputs": [
        {
          "name": "id",
          "type": "uint256"
        }
      ],
      "name": "read",
      "outputs": [
        {
          "name": "",
          "type": "uint256"
        },
        {
          "name": "",
          "type": "string"
        }
      ],
      "payable": false,
      "stateMutability": "view",
      "type": "function",
      "signature": "0xed2e5a97"
    },
    {
      "constant": false,
      "inputs": [
        {
          "name": "id",
          "type": "uint256"
        },
        {
          "name": "_name",
          "type": "string"
        }
      ],
      "name": "update",
      "outputs": [],
      "payable": false,
      "stateMutability": "nonpayable",
      "type": "function",
      "signature": "0xf745630f"
    },
    {
      "constant": false,
      "inputs": [
        {
          "name": "id",
          "type": "uint256"
        }
      ],
      "name": "destroy",
      "outputs": [],
      "payable": false,
      "stateMutability": "nonpayable",
      "type": "function",
      "signature": "0x9d118770"
    }
  ],
  "bytecode": "0x6080604052600160005534801561001557600080fd5b506108f2806100256000396000f3fe60806040526004361061006d576000357c0100000000000000000000000000000000000000000000000000000000900463ffffffff168063365b98b2146100725780639d1187701461012d578063b6a46b3b14610168578063ed2e5a9714610230578063f745630f146102eb575b600080fd5b34801561007e57600080fd5b506100ab6004803603602081101561009557600080fd5b81019080803590602001909291905050506103bd565b6040518083815260200180602001828103825283818151815260200191508051906020019080838360005b838110156100f15780820151818401526020810190506100d6565b50505050905090810190601f16801561011e5780820380516001836020036101000a031916815260200191505b50935050505060405180910390f35b34801561013957600080fd5b506101666004803603602081101561015057600080fd5b8101908080359060200190929190505050610488565b005b34801561017457600080fd5b5061022e6004803603602081101561018b57600080fd5b81019080803590602001906401000000008111156101a857600080fd5b8201836020820111156101ba57600080fd5b803590602001918460018302840111640100000000831117156101dc57600080fd5b91908080601f016020809104026020016040519081016040528093929190818152602001838380828437600081840152601f19601f8201169050808301925050505050505091929192905050506104d1565b005b34801561023c57600080fd5b506102696004803603602081101561025357600080fd5b8101908080359060200190929190505050610553565b6040518083815260200180602001828103825283818151815260200191508051906020019080838360005b838110156102af578082015181840152602081019050610294565b50505050905090810190601f1680156102dc5780820380516001836020036101000a031916815260200191505b50935050505060405180910390f35b3480156102f757600080fd5b506103bb6004803603604081101561030e57600080fd5b81019080803590602001909291908035906020019064010000000081111561033557600080fd5b82018360208201111561034757600080fd5b8035906020019184600183028401116401000000008311171561036957600080fd5b91908080601f016020809104026020016040519081016040528093929190818152602001838380828437600081840152601f19601f82011690508083019250505050505050919291929050505061064b565b005b6001818154811015156103cc57fe5b9060005260206000209060020201600091509050806000015490806001018054600181600116156101000203166002900480601f01602080910402602001604051908101604052809291908181526020018280546001816001161561010002031660029004801561047e5780601f106104535761010080835404028352916020019161047e565b820191906000526020600020905b81548152906001019060200180831161046157829003601f168201915b5050505050905082565b600061049382610692565b90506001818154811015156104a457fe5b90600052602060002090600202016000808201600090556001820160006104cb9190610759565b50505050565b600160408051908101604052806000548152602001838152509080600181540180825580915050906001820390600052602060002090600202016000909192909190915060008201518160000155602082015181600101908051906020019061053b9291906107a1565b50505050600080815480929190600101919050555050565b60006060600061056284610692565b905060018181548110151561057357fe5b90600052602060002090600202016000015460018281548110151561059457fe5b9060005260206000209060020201600101808054600181600116156101000203166002900480601f01602080910402602001604051908101604052809291908181526020018280546001816001161561010002031660029004801561063a5780601f1061060f5761010080835404028352916020019161063a565b820191906000526020600020905b81548152906001019060200180831161061d57829003601f168201915b505050505090509250925050915091565b600061065683610692565b90508160018281548110151561066857fe5b9060005260206000209060020201600101908051906020019061068c929190610821565b50505050565b600080600090505b6001805490508110156106e557826001828154811015156106b757fe5b90600052602060002090600202016000015414156106d85780915050610754565b808060010191505061069a565b506040517f08c379a00000000000000000000000000000000000000000000000000000000081526004018080602001828103825260168152602001807f557365722063616e206e6f7420626520666f756e64210000000000000000000081525060200191505060405180910390fd5b919050565b50805460018160011615610100020316600290046000825580601f1061077f575061079e565b601f01602090049060005260206000209081019061079d91906108a1565b5b50565b828054600181600116156101000203166002900490600052602060002090601f016020900481019282601f106107e257805160ff1916838001178555610810565b82800160010185558215610810579182015b8281111561080f5782518255916020019190600101906107f4565b5b50905061081d91906108a1565b5090565b828054600181600116156101000203166002900490600052602060002090601f016020900481019282601f1061086257805160ff1916838001178555610890565b82800160010185558215610890579182015b8281111561088f578251825591602001919060010190610874565b5b50905061089d91906108a1565b5090565b6108c391905b808211156108bf5760008160009055506001016108a7565b5090565b9056fea165627a7a723058206ae1412a4c36102c451a6a8693c293d68e72ce811af0221e31b3b1c5cf0ecff40029",
  "source": "pragma solidity >=0.4.22 <0.9.0;\n\ncontract CrudContract {\n    struct User{\n        uint uid;\n        string name;\n    }\n    uint nextId =1;\n\n    User[] public users;\n\n    function create(string memory _name) public {\n        users.push(User(nextId, _name));\n        nextId++;\n    }\n\n    function read(uint id) view public returns(uint, string memory){\n        uint position = getUser(id);\n        return (users[position].uid, users[position].name);\n    }\n\n    function update(uint id, string memory _name) public {\n        uint position = getUser(id);\n        users[position].name = _name;\n    }\n\n    function destroy(uint id) public {\n        uint position = getUser(id);\n        delete users[position];\n    }\n\n\n\n    function getUser(uint id) view internal returns(uint) { // returns position \n        for (uint i=0; i<users.length; i++) {\n            if(users[i].uid == id) {\n                return i;\n            }\n        }\n\n        revert(\"User can not be found!\");\n    }\n}",
  "sourcePath": "/home/brivan/Me/Projects/blockchain/dapp_crud/contracts/CrudContract.sol",
  "compiler": {
    "name": "solc",
    "version": "0.5.0+commit.1d4f565a.Emscripten.clang"
  },
  "schemaVersion": "3.0.2",
  "updatedAt": "2022-03-27T10:30:49.366Z",
  "devdoc": {
    "methods": {}
  },
  "userdoc": {
    "methods": {}
  }
}